:100000000C945D000C9485000C9485000C94850084
:100010000C9485000C9485000C9485000C9485004C
:100020000C9485000C9485000C9485000C9485003C
:100030000C9485000C9485000C9485000C9485002C
:100040000C94FF020C9485000C9485000C948500A0
:100050000C9485000C9485000C9485000C9485000C
:100060000C9485000C94850000000008000201003B
:100070000003040700000000000000000102040863
:100080001020408001020408102001020408102002
:10009000040404040404040402020202020203032E
:1000A0000303030300000000250028002B000000CC
:1000B0000000240027002A00720111241FBECFEF88
:1000C000D8E0DEBFCDBF11E0A0E0B1E0E4EFFDE09D
:1000D00002C005900D92AE31B107D9F721E0AEE133
:1000E000B1E001C01D92AF33B207E1F710E0CAEBF7
:1000F000D0E004C02297FE010E94F406C83BD1075D
:10010000C9F70E9437050C94F8060C94000083E6AA
:1001100084BD89E085BD61E085E00E94D50360E093
:1001200081E10E94D5038FE987BD0895CF92DF92C8
:10013000EF92FF9282E10E948F03BC01882777FD36
:100140008095982F0E94E10520E030EC4FE754E4C1
:100150000E944605609308017093090180930A018B
:1001600090930B0120E030E04FE153E40E946D06D4
:100170000E94B30568BD20E030E048EC52E4609195
:1001800008017091090180910A0190910B010E9470
:100190006D060E94AE056B017C0140E066E08EE1D9
:1001A00091E00E9421026DE071E08EE191E00E94F9
:1001B000820441E066E08EE191E00E9421024AE083
:1001C00050E0B6018EE191E00E942E0562E171E0FF
:1001D0008EE191E0FF90EF90DF90CF900C9482043D
:1001E00083E68093B00089E08093B10061E083E012
:1001F0000E94D50360E082E10E94D5038FE98093DD
:10020000B300089581E10E948F03BC01882777FD28
:100210008095982F0E94E10520E030EC4FE754E4F0
:100220000E944605609304017093050180930601C6
:100230009093070120E030E04FE153E40E946D0607
:100240000E94B3056093B400089583E28093800018
:1002500089E18093810061E08AE00E94D50360E03B
:1002600083E10E94D5038FE990E090938900809309
:100270008800089520E042E060E18EE191E00E9474
:100280003B020E9487000E94F0000C94250183E14C
:100290000E948F03BC01882777FD8095982F0E94CC
:1002A000E10520E030EC4FE754E40E9446056093FE
:1002B000000170930101809302019093030120E0FB
:1002C00030E04FE153E40E946D060E94B305709345
:1002D0008B0060938A0008950E9496000E9402019C
:1002E0000C944701CF92EF920F9388E0C82E9CE0C8
:1002F000E92E0DE02EE04FE060E18EE191E00E94FA
:10030000D9020F91EF90CF900895CF93DF93EC0136
:1003100060E08E810E940E0481E090E00E9449031B
:1003200061E08E810E940E0481E090E00E9449030A
:1003300060E08E810E940E0484E690E0DF91CF9110
:100340000C944903EF92FF920F931F93CF93DF9387
:100350008C01C0E0D0E0E62EF12CB7010C2E02C0DB
:10036000759567950A94E2F76170F801EC0FFD1F2F
:1003700087810E940E042196C430D10571F7C8010F
:10038000DF91CF911F910F91FF90EF900C94850119
:10039000EF92FF920F931F93CF93DF938C01C0E0F6
:1003A000D0E0E62EF12CB7010C2E02C075956795B2
:1003B0000A94E2F76170F801EC0FFD1F87810E943B
:1003C0000E042196C830D10571F7C801DF91CF9195
:1003D0001F910F91FF90EF900C9485011F93CF9385
:1003E000DF93EC01162F642F8C810E940E048D8107
:1003F0008F3F19F060E00E940E048F85612F84FF0B
:1004000006C0CE01DF91CF911F910C94C80170E01E
:1004100084E0759567958A95E1F7CE010E94A20167
:10042000612FCE01DF91CF911F910C94A20140E08A
:100430000C94EE0161E00E94170280ED97E00C94AD
:100440004903443008F043E0FC012389421710F0CF
:100450004FEF420FFC01E40FF11D2489260F2068A5
:10046000622F0C941702FC016089262F2460208BD8
:100470006C600C9417020F931F93CF93DF93EC01E2
:10048000423018F08F8588608F874B8B1C8A80E400
:100490008D8B6E8B70E0605C7F4F6F8B222329F019
:1004A000413019F48F8584608F8761E08C810E94D0
:1004B000D5038D818F3F19F061E00E94D50361E083
:1004C0008E810E94D50300E010E08F8584FF03C079
:1004D00088E090E002C084E090E00817190754F427
:1004E000FE01E00FF11F61E087810E94D5030F5FDD
:1004F0001F4FEBCF80E593EC0E94490360E08C81B5
:100500000E940E0460E08E810E940E048D818F3F58
:1005100019F060E00E940E046F8564FD1DC063E069
:10052000CE010E94A20184E991E10E94490363E0A7
:10053000CE010E94A20184E991E10E94490363E097
:10054000CE010E94A20186E990E00E94490362E088
:10055000CE010E94A20116C06062CE010E94170265
:1005600084E991E10E9449036F856062CE010E9497
:10057000170286E990E00E9449036F856062CE0110
:100580000E9417026F856062CE010E94170284E00C
:10059000888BCE010E943302CE010E941A0282E0B3
:1005A000898B66E0CE01DF91CF911F910F910C9462
:1005B0001702CF92EF920F93FC01138212828AE10D
:1005C00091E09183808364838FEF858346832783C3
:1005D0000087E186C28613861486158616861786DE
:1005E00020E041E060E1CF010F91EF90CF900C94BB
:1005F0003B0241E00E94EE0181E090E008951F92ED
:100600000F920FB60F9211242F933F938F939F93C6
:10061000AF93BF938091370190913801A091390138
:10062000B0913A013091360123E0230F2D3720F4A9
:100630000196A11DB11D05C026E8230F0296A11D3C
:10064000B11D209336018093370190933801A09318
:100650003901B0933A0180913B0190913C01A09106
:100660003D01B0913E010196A11DB11D80933B015A
:1006700090933C01A0933D01B0933E01BF91AF9197
:100680009F918F913F912F910F900FBE0F901F90D0
:1006900018958230910538F0880F991F880F991F9F
:1006A00005970197F1F70895789484B5826084BD29
:1006B00084B5816084BD85B5826085BD85B5816066
:1006C00085BDEEE6F0E0808181608083E1E8F0E0C6
:1006D0001082808182608083808181608083E0E8F5
:1006E000F0E0808181608083E1EBF0E080818460D4
:1006F0008083E0EBF0E0808181608083EAE7F0E0D6
:100700008081846080838081826080838081816039
:1007100080838081806880831092C10008958E302C
:1007200008F08E50877020910C0190E4299F900171
:100730001124822B80937C0080917A0080648093C6
:100740007A0080917A0086FDFCCF8091780020911C
:10075000790090E0922B0895833081F028F4813065
:1007600099F08230A1F008958730A9F08830B9F06F
:100770008430D1F4809180008F7D03C0809180000F
:100780008F7780938000089584B58F7702C084B5F9
:100790008F7D84BD08958091B0008F7703C08091D4
:1007A000B0008F7D8093B0000895CF93DF9390E0E9
:1007B000FC01E458FF4F2491FC01E057FF4F849166
:1007C000882349F190E0880F991FFC01E255FF4F03
:1007D000A591B4918C559F4FFC01C591D4919FB7C1
:1007E000611108C0F8948C91209582238C938881A4
:1007F00082230AC0623051F4F8948C91322F3095E4
:1008000083238C938881822B888304C0F8948C91F5
:10081000822B8C939FBFDF91CF9108950F931F93ED
:10082000CF93DF931F92CDB7DEB7282F30E0F901C9
:10083000E859FF4F8491F901E458FF4F1491F901F1
:10084000E057FF4F04910023C9F0882321F069830A
:100850000E94AC036981E02FF0E0EE0FFF1FEC5522
:10086000FF4FA591B4919FB7F8948C91611103C08B
:100870001095812301C0812B8C939FBF0F90DF9136
:10088000CF911F910F910895CF92DF92EF92FF9237
:100890000F931F93CF93DF937C016A01EB0100E07C
:1008A00010E00C151D0571F06991D701ED91FC91D7
:1008B0000190F081E02DC7010995892B19F00F5F98
:1008C0001F4FEFCFC801DF91CF911F910F91FF9084
:1008D000EF90DF90CF9008956115710581F0DB01F5
:1008E0000D900020E9F7AD0141505109461B570B0F
:1008F000DC01ED91FC910280F381E02D099480E010
:1009000090E008950C946C04DC01ED91FC91019051
:10091000F081E02D09948F929F92AF92BF92CF9277
:10092000DF92EF92FF920F931F93CF93DF93CDB798
:10093000DEB7A1970FB6F894DEBF0FBECDBF7C0126
:10094000C42EE52FCB01D22E19A221E02D1510F0D7
:100950002AE0D22E8E010F5D1F4F8D2C912CA12CE1
:10096000B12C6C2D7E2FA50194010E94D0068C2DF8
:10097000D29E80191124015011098A3014F4805D2F
:1009800001C0895CF80180832115310541055105BD
:1009900021F0C22EE32FCA01E4CFB801C7010E94A3
:1009A0006C04A1960FB6F894DEBF0FBECDBFDF91E9
:1009B000CF911F910F91FF90EF90DF90CF90BF905C
:1009C000AF909F908F900895CF92DF92EF92FF9219
:1009D0000F931F93CF93DF93EC016A017B012115E5
:1009E000310579F4E881F9810190F081E02D642FDF
:1009F000DF91CF911F910F91FF90EF90DF90CF90FB
:100A000009942A303105E9F477FF1AC06DE20E949B
:100A100084048C0144275527BA014C195D096E09DD
:100A20007F092AE0CE010E948B04800F911FDF9185
:100A3000CF911F910F91FF90EF90DF90CF9008958D
:100A40002AE0B701A601CE01DF91CF911F910F914E
:100A5000FF90EF90DF90CF900C948B049A01AB0144
:100A6000662757FD6095762F0C94E40408950E9444
:100A700054030E9436050E943A01C0E0D0E00E9473
:100A80006C012097E1F30E940000F9CF0CD0EBC07D
:100A9000E3D040F0DAD030F021F45F3F19F0CCC061
:100AA000511115C1CFC0F0D098F39923C9F3552344
:100AB000B1F3951B550BBB27AA2762177307840751
:100AC00038F09F5F5F4F220F331F441FAA1FA9F307
:100AD00033D00E2E3AF0E0E830D091505040E695F9
:100AE000001CCAF729D0FE2F27D0660F771F881F5A
:100AF000BB1F261737074807AB07B0E809F0BB0B49
:100B0000802DBF01FF2793585F4F2AF09E3F51056C
:100B100068F092C0DCC05F3FECF3983EDCF3869552
:100B200077956795B795F7959F5FC9F7880F911DE2
:100B30009695879597F90895E1E0660F771F881FCE
:100B4000BB1F621773078407BA0720F0621B730B81
:100B5000840BBA0BEE1F88F7E095089504D06894D3
:100B6000B111B5C0089598D088F09F5790F0B92F73
:100B70009927B751A0F0D1F0660F771F881F991FF2
:100B80001AF0BA95C9F712C0B13081F09FD0B1E028
:100B900008959CC0672F782F8827B85F39F0B93F38
:100BA000CCF3869577956795B395D9F73EF49095F4
:100BB0008095709561957F4F8F4F9F4F0895E89472
:100BC00009C097FB3EF490958095709561957F4F95
:100BD0008F4F9F4F9923A9F0F92F96E9BB27939543
:100BE000F695879577956795B795F111F8CFFAF453
:100BF000BB0F11F460FF1BC06F5F7F4F8F4F9F4F84
:100C000016C0882311F096E911C0772321F09EE8E1
:100C1000872F762F05C0662371F096E8862F70E047
:100C200060E02AF09A95660F771F881FDAF7880F21
:100C30009695879597F9089597F99F6780E870E0F2
:100C400060E008959FEF80EC089500240A94161642
:100C5000170618060906089500240A9412161306AA
:100C6000140605060895092E0394000C11F4882338
:100C700052F0BB0F40F4BF2B11F460FF04C06F5F54
:100C80007F4F8F4F9F4F089557FD9058440F551F2A
:100C900059F05F3F71F04795880F97FB991F61F0FE
:100CA0009F3F79F087950895121613061406551F75
:100CB000F2CF4695F1DF08C0161617061806991FE1
:100CC000F1CF86957105610508940895E894BB27D6
:100CD00066277727CB0197F908950BD0C4CFB5DFEE
:100CE00028F0BADF18F0952309F0A6CFABCF112476
:100CF000EECFCADFA0F3959FD1F3950F50E0551FBB
:100D0000629FF001729FBB27F00DB11D639FAA2760
:100D1000F00DB11DAA1F649F6627B00DA11D661FAF
:100D2000829F2227B00DA11D621F739FB00DA11DD0
:100D3000621F839FA00D611D221F749F3327A00D8A
:100D4000611D231F849F600D211D822F762F6A2F26
:100D500011249F5750408AF0E1F088234AF0EE0FAB
:100D6000FF1FBB1F661F771F881F91505040A9F7B8
:100D70009E3F510570F060CFAACF5F3FECF3983EE5
:100D8000DCF3869577956795B795F795E7959F5F1F
:100D9000C1F7FE2B880F911D9695879597F90895B9
:100DA000A1E21A2EAA1BBB1BFD010DC0AA1FBB1F6F
:100DB000EE1FFF1FA217B307E407F50720F0A21BE1
:100DC000B30BE40BF50B661F771F881F991F1A944E
:100DD00069F760957095809590959B01AC01BD0178
:100DE000CF010895EE0FFF1F0590F491E02D0994B7
:040DF000F894FFCFA5
:100DF4000000C8420000C8420000C8420144433A0F
:0E0E040031002520200000000000F902440407
:00000001FF
